S00B00004357472E7372656338
S113000019C033C032C031C030C02FC02EC02DC083
S11300102CC02BC02AC029C028C027C026C025C098
S113002024C023C043C021C020C01FC01EC01DC0A7
S11300301CC01BC011241FBECFEFD4E0DEBFCDBF58
S113004011E0A0E0B1E0E2ECF7E002C005900D920F
S1130050A63DB107D9F721E0A6EDB1E001C01D929C
S1130060AD3DB207E1F789D0AAC3CACF83E3809339
S1130070C4001092C50088E98093C1008EE091E02D
S11300809F938F9385E191E09F938F938AE191E011
S11300909F938F93B1D089E391E0C4D078940F906B
S11300A00F900F900F900F900F9008951F920F9242
S11300B00FB60F9211242F933F934F935F936F9337
S11300C07F938F939F93AF93BF93EF93FF93F89492
S11300D08091C6009091D6019D32F0F48D3011F0DC
S11300E08A3031F48AE090E098D01092D6011DC095
S11300F08F3751F48093C6008091D6018823A9F0EC
S113010081508093D60111C08093C6008091D6019E
S11301108F5F8093D60109C083E591E09F938F930D
S11301206BD01092D6010F900F907894FF91EF91BD
S1130130BF91AF919F918F917F916F915F914F91FB
S11301403F912F910F900FBE0F901F901895CF9352
S1130150C82F8A3011F48DE0FADFE0ECF0E09081F2
S113016095FFFDCFC093C60080E090E0CF91089545
S113017086E791E057D0539A089580E091E09093F8
S1130180DA018093D90172DFF3DF11D01DD0C8E00A
S11301908BB18C278BB982E12BD02FEF84E39CE0C9
S11301A0215080409040E1F700C00000F1CF8EE87C
S11301B091E038D084B1806C84B98AB1806F8AB9F7
S11301C01BB817B818B8089584B1896284B9249803
S11301D08CB581658CBD8CB51F928F9387EB91E0B4
S11301E09F938F9309D00F900F900F900F900895C5
S11301F028988EBD289A0895A0E0B0E0E1E0F1E0EF
S1130200B7C2FE01359661917191AF018091D90118
S11302109091DA0134D0E2E0C7C26091D9017091C3
S1130220DA0106C20F931F93CF93DF93E091D901B4
S1130230F091DA01238121FF1BC0EC0100E010E002
S113024089916091D9017091DA01DB011896ED91E1
S1130250FC911997882331F00995892B89F30FEFC5
S11302601FEFEECF8AE00995892B11F4C80102C073
S11302708FEF9FEFDF91CF911F910F910895ACE025
S1130280B0E0E4E4F1E064C27C016B018A01FC01AA
S113029017821682838181FFB0C1CE0101964C0181
S11302A0F7019381F60193FD859193FF81916F018D
S11302B0882309F49EC1853239F493FD859193FF17
S11302C081916F01853221F4B70190E0B1D1E8CF7B
S11302D0512C312C20E02032A0F48B3269F030F420
S11302E0803259F0833269F420612CC08D3239F0A8
S11302F0803339F4216026C02260246023C0286042
S113030021C027FD27C030ED380F3A3078F426FF9E
S113031006C0FAE05F9E300D1124532E13C08AE00C
S1130320389E300D1124332E20620CC08E3221F4FD
S113033026FD5FC1206406C08C3611F4206802C01B
S1130340883641F4F60193FD859193FF81916F0105
S11303508111C1CF982F9F7D9554933028F40C5F61
S11303601F4FFFE3F9830DC0833631F0833771F0FB
S1130370833509F057C021C0F801808189830E5F5D
S11303801F4F44244394512C540114C03801F2E00B
S11303906F0E711CF801A080B18026FF03C0652D8B
S11303A070E002C06FEF7FEFC5012C8736D12C01BE
S11303B083012C852F77222E16C03801F2E06F0EB0
S11303C0711CF801A080B18026FF03C0652D70E088
S11303D002C06FEF7FEFC5012C8714D12C012C854F
S11303E02068222E830123FC19C0832D90E0481637
S11303F05906A0F4B70180E290E01AD13A94F5CFFF
S1130400F50127FC859127FE81915F01B70190E0FA
S11304100FD131103A94F1E04F1A510841145104AC
S113042079F7DEC0843611F0893631F5F80127FFFB
S113043007C060817181828193810C5F1F4F08C066
S113044060817181882777FD8095982F0E5F1F4FFB
S11304502F76B22E97FF09C090958095709561957F
S11304607F4F8F4F9F4F2068B22E2AE030E0A401C7
S113047011D1A82EA81843C0853729F42F7EB22E97
S11304802AE030E025C0F22FF97FBF2E8F36C1F06D
S113049018F4883579F0ADC0803719F0883721F029
S11304A0A8C02F2F2061B22EB4FE0DC08B2D846006
S11304B0B82E09C024FF0AC09F2F9660B92E06C02B
S11304C028E030E005C020E130E002C020E132E065
S11304D0F801B7FE07C060817181828193810C5F4E
S11304E01F4F06C06081718180E090E00E5F1F4F56
S11304F0A401D0D0A82EA818FB2DFF77BF2EB6FEDE
S11305000BC02B2D2E7FA51450F4B4FE0AC0B2FCF0
S113051008C02B2D2E7E05C07A2C2B2D03C07A2CDF
S113052001C0752C24FF0DC0FE01EA0DF11D808170
S1130530803311F4297E09C022FF06C0739473949A
S113054004C0822F867809F0739423FD12C020FF23
S113055006C05A2C731418F4530C5718732C7314C4
S113056060F4B70180E290E02C8762D073942C850C
S1130570F6CF731410F4371801C0312C24FF11C0C6
S1130580B70180E390E02C8753D02C8522FF16C05E
S113059021FF03C088E590E002C088E790E0B7013E
S11305A00CC0822F867851F021FD02C080E201C088
S11305B08BE227FD8DE2B70190E03AD0A51430F428
S11305C0B70180E390E034D05A94F8CFAA94F401B0
S11305D0EA0DF11D8081B70190E02AD0A110F6CF79
S11305E0332009F45DCEB70180E290E021D03A9443
S11305F0F7CFF7018681978102C08FEF9FEF2C968A
S1130600E2E1C2C0FC010590615070400110D8F7CE
S1130610809590958E0F9F1F0895FC016150704046
S113062001900110D8F7809590958E0F9F1F089523
S11306300F931F93CF93DF93182F092FEB018B8117
S113064081FD03C08FEF9FEF20C082FF10C04E8159
S11306505F812C813D81421753077CF4E881F98145
S11306609F012F5F3F4F39832883108306C0E8859D
S1130670F985812F0995892B29F72E813F812F5FD9
S11306803F4F3F832E83812F902FDF91CF911F9176
S11306900F910895FA01AA27283051F1203181F1F0
S11306A0E8946F936E7F6E5F7F4F8F4F9F4FAF4F76
S11306B0B1E03ED0B4E03CD0670F781F891F9A1F89
S11306C0A11D680F791F8A1F911DA11D6A0F711D3D
S11306D0811D911DA11D20D009F468943F912AE049
S11306E0269F11243019305D3193DEF6CF01089531
S11306F0462F4770405D4193B3E00FD0C9F7F6CF62
S1130700462F4F70405D4A3318F0495D31FD405229
S1130710419302D0A9F7EACFB4E0A69597958795BF
S113072077956795BA95C9F700976105710508959E
S11307309B01AC010A2E069457954795379527954A
S1130740BA95C9F7620F731F841F951FA01D0895E2
S11307502F923F924F925F926F927F928F929F92CD
S1130760AF92BF92CF92DF92EF92FF920F931F93BB
S1130770CF93DF93CDB7DEB7CA1BDB0B0FB6F8946C
S1130780DEBF0FBECDBF09942A88398848885F84AC
S11307906E847D848C849B84AA84B984C884DF801D
S11307A0EE80FD800C811B81AA81B981CE0FD11D01
S11307B00FB6F894DEBF0FBECDBFED010895F894D7
S10507C0FFCF65
S11307C20000000200000000A700000000001B5B04
S11307D2313B3148001B5B324A0025732573526F4B
S11307E27A706F637AEA63696520706F7267726107
S11307F26D7520766572310A00696E69636A616C8F
S1130802697A61636A61205553415254202D204F05
S11308124B200070727A656B726F637A6F6E6F2011
S11308226D617820696C6F7363207A6E616B6F7788
S1130832202F6E2F7200696E69636A616C697A6136
S1130842636A612064696F6479204C454400696E6F
S113085269636A616C697A61636A6120706572793D
S1130862666572696920706F6D6961726F77796309
S113087268202D204F4B00696E69636A61636A6167
S11308822073706920535043523A203078257820DF
S10908922D4F4B0A00008B
S9030000FC
